{
  "contractName": "SolarCharge",
  "abi": [
    {
      "inputs": [],
      "stateMutability": "nonpayable",
      "type": "constructor"
    },
    {
      "inputs": [],
      "name": "coinRate",
      "outputs": [
        {
          "internalType": "uint256",
          "name": "",
          "type": "uint256"
        }
      ],
      "stateMutability": "view",
      "type": "function",
      "constant": true
    },
    {
      "inputs": [],
      "name": "numStations",
      "outputs": [
        {
          "internalType": "uint256",
          "name": "",
          "type": "uint256"
        }
      ],
      "stateMutability": "view",
      "type": "function",
      "constant": true
    },
    {
      "inputs": [],
      "name": "numUsers",
      "outputs": [
        {
          "internalType": "uint256",
          "name": "",
          "type": "uint256"
        }
      ],
      "stateMutability": "view",
      "type": "function",
      "constant": true
    },
    {
      "inputs": [],
      "name": "owner",
      "outputs": [
        {
          "internalType": "address",
          "name": "",
          "type": "address"
        }
      ],
      "stateMutability": "view",
      "type": "function",
      "constant": true
    },
    {
      "inputs": [
        {
          "internalType": "uint256",
          "name": "",
          "type": "uint256"
        }
      ],
      "name": "stations",
      "outputs": [
        {
          "internalType": "uint256",
          "name": "rate",
          "type": "uint256"
        },
        {
          "internalType": "string",
          "name": "location",
          "type": "string"
        },
        {
          "internalType": "uint256",
          "name": "coinBalance",
          "type": "uint256"
        },
        {
          "internalType": "uint256",
          "name": "lastActivated",
          "type": "uint256"
        },
        {
          "internalType": "uint256",
          "name": "lastDuration",
          "type": "uint256"
        }
      ],
      "stateMutability": "view",
      "type": "function",
      "constant": true
    },
    {
      "inputs": [
        {
          "internalType": "bytes32",
          "name": "",
          "type": "bytes32"
        }
      ],
      "name": "users",
      "outputs": [
        {
          "internalType": "string",
          "name": "name",
          "type": "string"
        },
        {
          "internalType": "address",
          "name": "userAccount",
          "type": "address"
        },
        {
          "internalType": "uint256",
          "name": "amountPaid",
          "type": "uint256"
        },
        {
          "internalType": "uint256",
          "name": "solcoins",
          "type": "uint256"
        },
        {
          "internalType": "bool",
          "name": "userAdded",
          "type": "bool"
        }
      ],
      "stateMutability": "view",
      "type": "function",
      "constant": true
    },
    {
      "inputs": [
        {
          "internalType": "string",
          "name": "_email",
          "type": "string"
        },
        {
          "internalType": "string",
          "name": "_name",
          "type": "string"
        }
      ],
      "name": "registerUser",
      "outputs": [],
      "stateMutability": "nonpayable",
      "type": "function"
    },
    {
      "inputs": [
        {
          "internalType": "string",
          "name": "_email",
          "type": "string"
        }
      ],
      "name": "buyCoins",
      "outputs": [],
      "stateMutability": "payable",
      "type": "function",
      "payable": true
    },
    {
      "inputs": [
        {
          "internalType": "uint256",
          "name": "ID",
          "type": "uint256"
        },
        {
          "internalType": "uint256",
          "name": "_rate",
          "type": "uint256"
        },
        {
          "internalType": "string",
          "name": "_location",
          "type": "string"
        }
      ],
      "name": "addStation",
      "outputs": [],
      "stateMutability": "payable",
      "type": "function",
      "payable": true
    },
    {
      "inputs": [
        {
          "internalType": "string",
          "name": "_email",
          "type": "string"
        },
        {
          "internalType": "uint256",
          "name": "ID",
          "type": "uint256"
        },
        {
          "internalType": "uint256",
          "name": "duration",
          "type": "uint256"
        }
      ],
      "name": "activateStation",
      "outputs": [],
      "stateMutability": "nonpayable",
      "type": "function"
    },
    {
      "inputs": [
        {
          "internalType": "uint256",
          "name": "ID",
          "type": "uint256"
        }
      ],
      "name": "getStationState",
      "outputs": [
        {
          "internalType": "bool",
          "name": "",
          "type": "bool"
        }
      ],
      "stateMutability": "view",
      "type": "function",
      "constant": true
    },
    {
      "inputs": [
        {
          "internalType": "string",
          "name": "_email",
          "type": "string"
        }
      ],
      "name": "getUser",
      "outputs": [
        {
          "internalType": "string",
          "name": "name",
          "type": "string"
        },
        {
          "internalType": "address",
          "name": "userAccount",
          "type": "address"
        },
        {
          "internalType": "uint256",
          "name": "amountPaid",
          "type": "uint256"
        },
        {
          "internalType": "uint256",
          "name": "solcoins",
          "type": "uint256"
        }
      ],
      "stateMutability": "view",
      "type": "function",
      "constant": true
    },
    {
      "inputs": [
        {
          "internalType": "uint256",
          "name": "ID",
          "type": "uint256"
        }
      ],
      "name": "getStation",
      "outputs": [
        {
          "internalType": "uint256",
          "name": "rate",
          "type": "uint256"
        },
        {
          "internalType": "string",
          "name": "location",
          "type": "string"
        },
        {
          "internalType": "uint256",
          "name": "coinBalance",
          "type": "uint256"
        },
        {
          "internalType": "uint256",
          "name": "lastActivated",
          "type": "uint256"
        },
        {
          "internalType": "uint256",
          "name": "lastDuration",
          "type": "uint256"
        }
      ],
      "stateMutability": "view",
      "type": "function",
      "constant": true
    },
    {
      "inputs": [
        {
          "internalType": "string",
          "name": "s",
          "type": "string"
        }
      ],
      "name": "stringToBytes",
      "outputs": [
        {
          "internalType": "bytes32",
          "name": "",
          "type": "bytes32"
        }
      ],
      "stateMutability": "pure",
      "type": "function",
      "constant": true
    }
  ],
  "bytecode": "0x608060405234801561001057600080fd5b5033600260006101000a81548173ffffffffffffffffffffffffffffffffffffffff021916908373ffffffffffffffffffffffffffffffffffffffff16021790555060006003819055506000600481905550620186a060058190555061178c8061007b6000396000f3fe6080604052600436106100dd5760003560e01c80638da5cb5b1161007f578063cea6ab9811610059578063cea6ab98146102d0578063d34788c714610311578063e106fb4b1461032d578063f571545b1461036a576100dd565b80638da5cb5b1461022757806392f859db146102525780639de8779e14610293576100dd565b806328152c9b116100bb57806328152c9b14610177578063284ab2db146101a057806331feb671146101cb5780633a843e8a1461020b576100dd565b8063106e054d146100e257806319a50f49146101235780631d2e4afd1461014e575b600080fd5b3480156100ee57600080fd5b5061010960048036038101906101049190610e45565b610395565b60405161011a959493929190610f1a565b60405180910390f35b34801561012f57600080fd5b506101386104ac565b6040516101459190610f74565b60405180910390f35b34801561015a57600080fd5b50610175600480360381019061017091906110c4565b6104b2565b005b34801561018357600080fd5b5061019e6004803603810190610199919061113c565b6105af565b005b3480156101ac57600080fd5b506101b56107af565b6040516101c29190610f74565b60405180910390f35b3480156101d757600080fd5b506101f260048036038101906101ed91906111ab565b6107b5565b6040516102029493929190611235565b60405180910390f35b610225600480360381019061022091906111ab565b6108d8565b005b34801561023357600080fd5b5061023c6109bb565b6040516102499190611281565b60405180910390f35b34801561025e57600080fd5b5061027960048036038101906102749190610e45565b6109e1565b60405161028a959493929190610f1a565b60405180910390f35b34801561029f57600080fd5b506102ba60048036038101906102b59190610e45565b610a9f565b6040516102c791906112b7565b60405180910390f35b3480156102dc57600080fd5b506102f760048036038101906102f29190611308565b610af3565b604051610308959493929190611335565b60405180910390f35b61032b6004803603810190610326919061138f565b610bde565b005b34801561033957600080fd5b50610354600480360381019061034f91906111ab565b610cd2565b604051610361919061140d565b60405180910390f35b34801561037657600080fd5b5061037f610d52565b60405161038c9190610f74565b60405180910390f35b600060606000806000600160008781526020019081526020016000206000015494506001600087815260200190815260200160002060010180546103d890611457565b80601f016020809104026020016040519081016040528092919081815260200182805461040490611457565b80156104515780601f1061042657610100808354040283529160200191610451565b820191906000526020600020905b81548152906001019060200180831161043457829003601f168201915b5050505050935060016000878152602001908152602001600020600201549250600160008781526020019081526020016000206003015491506001600087815260200190815260200160002060040154905091939590929450565b60035481565b60006104bd83610cd2565b905060008082815260200190815260200160002060040160009054906101000a900460ff16156104ec57600080fd5b60008060008381526020019081526020016000209050338160010160006101000a81548173ffffffffffffffffffffffffffffffffffffffff021916908373ffffffffffffffffffffffffffffffffffffffff1602179055508281600001908051906020019061055d929190610d58565b50600081600201819055506000816003018190555060018160040160006101000a81548160ff0219169083151502179055506001600360008282546105a291906114b7565b9250508190555050505050565b60006105ba84610cd2565b90506000600160008581526020019081526020016000206000015403610615576040517f08c379a000000000000000000000000000000000000000000000000000000000815260040161060c90611559565b60405180910390fd5b6001600084815260200190815260200160002060040154600160008581526020019081526020016000206003015461064d91906114b7565b42101561068f576040517f08c379a0000000000000000000000000000000000000000000000000000000008152600401610686906115c5565b60405180910390fd5b60008260016000868152602001908152602001600020600001546106b391906115e5565b90508060008084815260200190815260200160002060030154101561070d576040517f08c379a00000000000000000000000000000000000000000000000000000000081526004016107049061168b565b60405180910390fd5b80600080848152602001908152602001600020600301600082825461073291906116ab565b925050819055508060016000868152602001908152602001600020600201600082825461075f91906114b7565b92505081905550426001600086815260200190815260200160002060030181905550603c8361078e91906115e5565b60016000868152602001908152602001600020600401819055505050505050565b60045481565b60606000806000806107c686610cd2565b905060008082815260200190815260200160002060000180546107e890611457565b80601f016020809104026020016040519081016040528092919081815260200182805461081490611457565b80156108615780601f1061083657610100808354040283529160200191610861565b820191906000526020600020905b81548152906001019060200180831161084457829003601f168201915b5050505050945060008082815260200190815260200160002060010160009054906101000a900473ffffffffffffffffffffffffffffffffffffffff169350600080828152602001908152602001600020600201549250600080828152602001908152602001600020600301549150509193509193565b60006108e382610cd2565b90503373ffffffffffffffffffffffffffffffffffffffff1660008083815260200190815260200160002060010160009054906101000a900473ffffffffffffffffffffffffffffffffffffffff1673ffffffffffffffffffffffffffffffffffffffff161461095257600080fd5b34600080838152602001908152602001600020600201600082825461097791906114b7565b925050819055506005543461098c91906115e5565b60008083815260200190815260200160002060030160008282546109b091906114b7565b925050819055505050565b600260009054906101000a900473ffffffffffffffffffffffffffffffffffffffff1681565b6001602052806000526040600020600091509050806000015490806001018054610a0a90611457565b80601f0160208091040260200160405190810160405280929190818152602001828054610a3690611457565b8015610a835780601f10610a5857610100808354040283529160200191610a83565b820191906000526020600020905b815481529060010190602001808311610a6657829003601f168201915b5050505050908060020154908060030154908060040154905085565b600060016000838152602001908152602001600020600401546001600084815260200190815260200160002060030154610ad991906114b7565b421015610ae95760019050610aee565b600090505b919050565b6000602052806000526040600020600091509050806000018054610b1690611457565b80601f0160208091040260200160405190810160405280929190818152602001828054610b4290611457565b8015610b8f5780601f10610b6457610100808354040283529160200191610b8f565b820191906000526020600020905b815481529060010190602001808311610b7257829003601f168201915b5050505050908060010160009054906101000a900473ffffffffffffffffffffffffffffffffffffffff16908060020154908060030154908060040160009054906101000a900460ff16905085565b600260009054906101000a900473ffffffffffffffffffffffffffffffffffffffff1673ffffffffffffffffffffffffffffffffffffffff163373ffffffffffffffffffffffffffffffffffffffff1614610c3857600080fd5b6000600160008581526020019081526020016000206000015414610c5b57600080fd5b600060016000858152602001908152602001600020905060008160020181905550600081600301819055506000816004018190555081816001019080519060200190610ca8929190610d58565b50828160000181905550600160046000828254610cc591906114b7565b9250508190555050505050565b6000808290506000805b6020811015610d44578251811015610d1757828181518110610d0157610d006116df565b5b602001015160f81c60f81b60f81c60ff16821791505b601f811015610d315761010082610d2e91906115e5565b91505b8080610d3c9061170e565b915050610cdc565b508060001b92505050919050565b60055481565b828054610d6490611457565b90600052602060002090601f016020900481019282610d865760008555610dcd565b82601f10610d9f57805160ff1916838001178555610dcd565b82800160010185558215610dcd579182015b82811115610dcc578251825591602001919060010190610db1565b5b509050610dda9190610dde565b5090565b5b80821115610df7576000816000905550600101610ddf565b5090565b6000604051905090565b600080fd5b600080fd5b6000819050919050565b610e2281610e0f565b8114610e2d57600080fd5b50565b600081359050610e3f81610e19565b92915050565b600060208284031215610e5b57610e5a610e05565b5b6000610e6984828501610e30565b91505092915050565b610e7b81610e0f565b82525050565b600081519050919050565b600082825260208201905092915050565b60005b83811015610ebb578082015181840152602081019050610ea0565b83811115610eca576000848401525b50505050565b6000601f19601f8301169050919050565b6000610eec82610e81565b610ef68185610e8c565b9350610f06818560208601610e9d565b610f0f81610ed0565b840191505092915050565b600060a082019050610f2f6000830188610e72565b8181036020830152610f418187610ee1565b9050610f506040830186610e72565b610f5d6060830185610e72565b610f6a6080830184610e72565b9695505050505050565b6000602082019050610f896000830184610e72565b92915050565b600080fd5b600080fd5b7f4e487b7100000000000000000000000000000000000000000000000000000000600052604160045260246000fd5b610fd182610ed0565b810181811067ffffffffffffffff82111715610ff057610fef610f99565b5b80604052505050565b6000611003610dfb565b905061100f8282610fc8565b919050565b600067ffffffffffffffff82111561102f5761102e610f99565b5b61103882610ed0565b9050602081019050919050565b82818337600083830152505050565b600061106761106284611014565b610ff9565b90508281526020810184848401111561108357611082610f94565b5b61108e848285611045565b509392505050565b600082601f8301126110ab576110aa610f8f565b5b81356110bb848260208601611054565b91505092915050565b600080604083850312156110db576110da610e05565b5b600083013567ffffffffffffffff8111156110f9576110f8610e0a565b5b61110585828601611096565b925050602083013567ffffffffffffffff81111561112657611125610e0a565b5b61113285828601611096565b9150509250929050565b60008060006060848603121561115557611154610e05565b5b600084013567ffffffffffffffff81111561117357611172610e0a565b5b61117f86828701611096565b935050602061119086828701610e30565b92505060406111a186828701610e30565b9150509250925092565b6000602082840312156111c1576111c0610e05565b5b600082013567ffffffffffffffff8111156111df576111de610e0a565b5b6111eb84828501611096565b91505092915050565b600073ffffffffffffffffffffffffffffffffffffffff82169050919050565b600061121f826111f4565b9050919050565b61122f81611214565b82525050565b6000608082019050818103600083015261124f8187610ee1565b905061125e6020830186611226565b61126b6040830185610e72565b6112786060830184610e72565b95945050505050565b60006020820190506112966000830184611226565b92915050565b60008115159050919050565b6112b18161129c565b82525050565b60006020820190506112cc60008301846112a8565b92915050565b6000819050919050565b6112e5816112d2565b81146112f057600080fd5b50565b600081359050611302816112dc565b92915050565b60006020828403121561131e5761131d610e05565b5b600061132c848285016112f3565b91505092915050565b600060a082019050818103600083015261134f8188610ee1565b905061135e6020830187611226565b61136b6040830186610e72565b6113786060830185610e72565b61138560808301846112a8565b9695505050505050565b6000806000606084860312156113a8576113a7610e05565b5b60006113b686828701610e30565b93505060206113c786828701610e30565b925050604084013567ffffffffffffffff8111156113e8576113e7610e0a565b5b6113f486828701611096565b9150509250925092565b611407816112d2565b82525050565b600060208201905061142260008301846113fe565b92915050565b7f4e487b7100000000000000000000000000000000000000000000000000000000600052602260045260246000fd5b6000600282049050600182168061146f57607f821691505b60208210810361148257611481611428565b5b50919050565b7f4e487b7100000000000000000000000000000000000000000000000000000000600052601160045260246000fd5b60006114c282610e0f565b91506114cd83610e0f565b9250827fffffffffffffffffffffffffffffffffffffffffffffffffffffffffffffffff0382111561150257611501611488565b5b828201905092915050565b7f53746174696f6e20646f65736e6f742065786973740000000000000000000000600082015250565b6000611543601583610e8c565b915061154e8261150d565b602082019050919050565b6000602082019050818103600083015261157281611536565b9050919050565b7f53746174696f6e20697320627573790000000000000000000000000000000000600082015250565b60006115af600f83610e8c565b91506115ba82611579565b602082019050919050565b600060208201905081810360008301526115de816115a2565b9050919050565b60006115f082610e0f565b91506115fb83610e0f565b9250817fffffffffffffffffffffffffffffffffffffffffffffffffffffffffffffffff048311821515161561163457611633611488565b5b828202905092915050565b7f496e73756666696369656e7420636f696e730000000000000000000000000000600082015250565b6000611675601283610e8c565b91506116808261163f565b602082019050919050565b600060208201905081810360008301526116a481611668565b9050919050565b60006116b682610e0f565b91506116c183610e0f565b9250828210156116d4576116d3611488565b5b828203905092915050565b7f4e487b7100000000000000000000000000000000000000000000000000000000600052603260045260246000fd5b600061171982610e0f565b91507fffffffffffffffffffffffffffffffffffffffffffffffffffffffffffffffff820361174b5761174a611488565b5b60018201905091905056fea2646970667358221220e2fed8c0f964d84148a2453ea797498d40f9f3baabac22766ce2a37e995fa14864736f6c634300080d0033",
  "immutableReferences": {},
  "source": "//SPDX-License-Identifier: UNLICENSED\npragma solidity ^0.8.13;\n\ncontract SolarCharge {\n\n\tstruct User {\n\t\tstring name;\n\t    address userAccount;\n        uint amountPaid;\n        uint solcoins;\n        bool userAdded;\n    }\n\n    mapping (bytes32 => User) public users;\n\n    struct Station {\n        uint rate;\n        string location;\n        uint coinBalance;\n        uint lastActivated;\n        uint lastDuration;\n    }\n\n    mapping (uint => Station) public stations;\n\n\taddress public owner;\n\tuint public numUsers;\n\tuint public numStations;\n\tuint public coinRate; // coins per ether\n\n    constructor (){\n        owner = msg.sender;\n\t\tnumUsers = 0;\n\t\tnumStations = 0;\n\t\tcoinRate = 100000;\n    }\n\n\tfunction registerUser(string memory _email, string memory _name) public {\n\t\tbytes32 email = stringToBytes(_email);\n\n\t\tif(users[email].userAdded){\n\t\t\trevert();\n\t\t}\n\t\t\n\t\tUser storage u = users[email]; \n        u.userAccount = msg.sender;\n        u.name = _name;\n        u.amountPaid = 0;\n        u.solcoins =0;\n        u.userAdded = true;\n\t\tnumUsers += 1;\n\t}\n\n\tfunction buyCoins(string memory _email) public payable {\n\t\tbytes32 email = stringToBytes(_email);\n\n\t\tif(users[email].userAccount!=msg.sender){\n\t\t\trevert();\n\t\t}\n        users[email].amountPaid += msg.value;\n        users[email].solcoins += msg.value*coinRate;\n\t}\n\n\tfunction addStation(uint ID, uint _rate, string memory _location) public payable {\n\t\tif(msg.sender!=owner){\n\t\t\trevert();\n\t\t}\n\t\tif(stations[ID].rate!=0){\n\t\t\trevert();\n\t\t}\n\n\t\tStation storage s = stations[ID]; \n        s.coinBalance = 0;\n        s.lastActivated = 0;\n        s.lastDuration = 0;\n        s.location = _location;\n        s.rate = _rate;\n        numStations += 1;\n\t}\n\n\tfunction activateStation(string memory _email, uint ID, uint duration) public {\n\t\tbytes32 email = stringToBytes(_email);\n\n\t\t// Station does not exist\n\t\tif(stations[ID].rate==0){\n\t\t\trevert(\"Station doesnot exist\");\n\t\t}\n\n\t\t// Station is busy\n\t\tif(block.timestamp < (stations[ID].lastActivated+stations[ID].lastDuration)){\n\t\t\trevert(\"Station is busy\");\n\t\t}\n\n\t\tuint coinsRequired = stations[ID].rate*duration;\n\n\t\t// User has insufficient coins\n\t\tif (users[email].solcoins<coinsRequired){\n\t\t\trevert(\"Insufficient coins\");\n\t\t}\n\n        users[email].solcoins -= coinsRequired;\n        stations[ID].coinBalance += coinsRequired;\n        stations[ID].lastActivated = block.timestamp;\n        stations[ID].lastDuration = duration*60;\n\t}\n\n\tfunction getStationState(uint ID) public view returns (bool){\n\t\tif(block.timestamp<(stations[ID].lastActivated+stations[ID].lastDuration)){\n\t\t\treturn true;\n\t\t}else{\n\t\t\treturn false;\n\t\t}            \t\n\t}\n\n\tfunction getUser(string memory _email) public view returns (string memory name, \n        address userAccount, uint amountPaid, uint solcoins){\n\t\tbytes32 email = stringToBytes(_email);\n\t\tname = users[email].name;\n\t\tuserAccount = users[email].userAccount;\n        amountPaid = users[email].amountPaid;\n        solcoins = users[email].solcoins;\n\t}\n\n\tfunction getStation(uint ID) public view returns (uint rate, \n            string memory location, uint coinBalance, \n            uint lastActivated, uint lastDuration){\n\t\trate = stations[ID].rate;\n        location = stations[ID].location;\n        coinBalance = stations[ID].coinBalance;\n        lastActivated = stations[ID].lastActivated;\n        lastDuration = stations[ID].lastDuration;\n\t}\n\n\t// Converts 'string' to 'bytes32'\n\tfunction stringToBytes(string memory s) public pure returns (bytes32) {\n\t  bytes memory b = bytes(s);\n\t  uint r = 0;\n\t  for (uint i = 0; i < 32; i++) {\n\t      if (i < b.length) {\n\t          r = r | uint(uint8(b[i]));\n\t      }\n\t      if (i < 31) r = r * 256;\n\t  }\n\t  return bytes32(r);\n\t}\n\n}\n\n",
  "sourcePath": "/Users/rrchaurasia/Desktop/FinalYearProject/Solar_Charge/solarcharge-node-api/contracts/SolarCharge.sol",
  "compiler": {
    "name": "solc",
    "version": "0.8.13+commit.abaa5c0e.Emscripten.clang"
  },
  "schemaVersion": "3.4.7",
  "updatedAt": "2022-05-03T14:41:46.094Z",
  "networkType": "ethereum",
  "devdoc": {
    "kind": "dev",
    "methods": {},
    "version": 1
  },
  "userdoc": {
    "kind": "user",
    "methods": {},
    "version": 1
  }
}