{
  "contractName": "SolarCharge",
  "abi": [
    {
      "inputs": [],
      "stateMutability": "nonpayable",
      "type": "constructor"
    },
    {
      "inputs": [],
      "name": "coinRate",
      "outputs": [
        {
          "internalType": "uint256",
          "name": "",
          "type": "uint256"
        }
      ],
      "stateMutability": "view",
      "type": "function",
      "constant": true
    },
    {
      "inputs": [],
      "name": "numStations",
      "outputs": [
        {
          "internalType": "uint256",
          "name": "",
          "type": "uint256"
        }
      ],
      "stateMutability": "view",
      "type": "function",
      "constant": true
    },
    {
      "inputs": [],
      "name": "numUsers",
      "outputs": [
        {
          "internalType": "uint256",
          "name": "",
          "type": "uint256"
        }
      ],
      "stateMutability": "view",
      "type": "function",
      "constant": true
    },
    {
      "inputs": [],
      "name": "owner",
      "outputs": [
        {
          "internalType": "address",
          "name": "",
          "type": "address"
        }
      ],
      "stateMutability": "view",
      "type": "function",
      "constant": true
    },
    {
      "inputs": [
        {
          "internalType": "uint256",
          "name": "",
          "type": "uint256"
        }
      ],
      "name": "stations",
      "outputs": [
        {
          "internalType": "uint256",
          "name": "rate",
          "type": "uint256"
        },
        {
          "internalType": "string",
          "name": "location",
          "type": "string"
        },
        {
          "internalType": "uint256",
          "name": "coinBalance",
          "type": "uint256"
        },
        {
          "internalType": "uint256",
          "name": "lastActivated",
          "type": "uint256"
        },
        {
          "internalType": "uint256",
          "name": "lastDuration",
          "type": "uint256"
        }
      ],
      "stateMutability": "view",
      "type": "function",
      "constant": true
    },
    {
      "inputs": [
        {
          "internalType": "bytes32",
          "name": "",
          "type": "bytes32"
        }
      ],
      "name": "users",
      "outputs": [
        {
          "internalType": "string",
          "name": "name",
          "type": "string"
        },
        {
          "internalType": "address",
          "name": "userAccount",
          "type": "address"
        },
        {
          "internalType": "uint256",
          "name": "amountPaid",
          "type": "uint256"
        },
        {
          "internalType": "uint256",
          "name": "solcoins",
          "type": "uint256"
        },
        {
          "internalType": "bool",
          "name": "userAdded",
          "type": "bool"
        }
      ],
      "stateMutability": "view",
      "type": "function",
      "constant": true
    },
    {
      "inputs": [
        {
          "internalType": "string",
          "name": "_email",
          "type": "string"
        },
        {
          "internalType": "string",
          "name": "_name",
          "type": "string"
        }
      ],
      "name": "registerUser",
      "outputs": [],
      "stateMutability": "nonpayable",
      "type": "function"
    },
    {
      "inputs": [
        {
          "internalType": "string",
          "name": "_email",
          "type": "string"
        }
      ],
      "name": "buyCoins",
      "outputs": [],
      "stateMutability": "payable",
      "type": "function",
      "payable": true
    },
    {
      "inputs": [
        {
          "internalType": "uint256",
          "name": "ID",
          "type": "uint256"
        },
        {
          "internalType": "uint256",
          "name": "_rate",
          "type": "uint256"
        },
        {
          "internalType": "string",
          "name": "_location",
          "type": "string"
        }
      ],
      "name": "addStation",
      "outputs": [],
      "stateMutability": "payable",
      "type": "function",
      "payable": true
    },
    {
      "inputs": [
        {
          "internalType": "string",
          "name": "_email",
          "type": "string"
        },
        {
          "internalType": "uint256",
          "name": "ID",
          "type": "uint256"
        },
        {
          "internalType": "uint256",
          "name": "duration",
          "type": "uint256"
        }
      ],
      "name": "activateStation",
      "outputs": [],
      "stateMutability": "nonpayable",
      "type": "function"
    },
    {
      "inputs": [
        {
          "internalType": "uint256",
          "name": "ID",
          "type": "uint256"
        }
      ],
      "name": "getStationState",
      "outputs": [
        {
          "internalType": "bool",
          "name": "",
          "type": "bool"
        }
      ],
      "stateMutability": "view",
      "type": "function",
      "constant": true
    },
    {
      "inputs": [
        {
          "internalType": "string",
          "name": "_email",
          "type": "string"
        }
      ],
      "name": "getUser",
      "outputs": [
        {
          "internalType": "string",
          "name": "name",
          "type": "string"
        },
        {
          "internalType": "address",
          "name": "userAccount",
          "type": "address"
        },
        {
          "internalType": "uint256",
          "name": "amountPaid",
          "type": "uint256"
        },
        {
          "internalType": "uint256",
          "name": "solcoins",
          "type": "uint256"
        }
      ],
      "stateMutability": "view",
      "type": "function",
      "constant": true
    },
    {
      "inputs": [
        {
          "internalType": "uint256",
          "name": "ID",
          "type": "uint256"
        }
      ],
      "name": "getStation",
      "outputs": [
        {
          "internalType": "uint256",
          "name": "rate",
          "type": "uint256"
        },
        {
          "internalType": "string",
          "name": "location",
          "type": "string"
        },
        {
          "internalType": "uint256",
          "name": "coinBalance",
          "type": "uint256"
        },
        {
          "internalType": "uint256",
          "name": "lastActivated",
          "type": "uint256"
        },
        {
          "internalType": "uint256",
          "name": "lastDuration",
          "type": "uint256"
        }
      ],
      "stateMutability": "view",
      "type": "function",
      "constant": true
    },
    {
      "inputs": [
        {
          "internalType": "string",
          "name": "s",
          "type": "string"
        }
      ],
      "name": "stringToBytes",
      "outputs": [
        {
          "internalType": "bytes32",
          "name": "",
          "type": "bytes32"
        }
      ],
      "stateMutability": "pure",
      "type": "function",
      "constant": true
    }
  ],
  "bytecode": "0x608060405234801561001057600080fd5b5033600260006101000a81548173ffffffffffffffffffffffffffffffffffffffff021916908373ffffffffffffffffffffffffffffffffffffffff16021790555060006003819055506000600481905550620186a060058190555061159a8061007b6000396000f3fe6080604052600436106100dd5760003560e01c80638da5cb5b1161007f578063cea6ab9811610059578063cea6ab98146102d0578063d34788c714610311578063e106fb4b1461032d578063f571545b1461036a576100dd565b80638da5cb5b1461022757806392f859db146102525780639de8779e14610293576100dd565b806328152c9b116100bb57806328152c9b14610177578063284ab2db146101a057806331feb671146101cb5780633a843e8a1461020b576100dd565b8063106e054d146100e257806319a50f49146101235780631d2e4afd1461014e575b600080fd5b3480156100ee57600080fd5b5061010960048036038101906101049190610d97565b610395565b60405161011a959493929190610e6c565b60405180910390f35b34801561012f57600080fd5b506101386104ac565b6040516101459190610ec6565b60405180910390f35b34801561015a57600080fd5b5061017560048036038101906101709190611016565b6104b2565b005b34801561018357600080fd5b5061019e6004803603810190610199919061108e565b6105af565b005b3480156101ac57600080fd5b506101b5610701565b6040516101c29190610ec6565b60405180910390f35b3480156101d757600080fd5b506101f260048036038101906101ed91906110fd565b610707565b6040516102029493929190611187565b60405180910390f35b610225600480360381019061022091906110fd565b61082a565b005b34801561023357600080fd5b5061023c61090d565b60405161024991906111d3565b60405180910390f35b34801561025e57600080fd5b5061027960048036038101906102749190610d97565b610933565b60405161028a959493929190610e6c565b60405180910390f35b34801561029f57600080fd5b506102ba60048036038101906102b59190610d97565b6109f1565b6040516102c79190611209565b60405180910390f35b3480156102dc57600080fd5b506102f760048036038101906102f2919061125a565b610a45565b604051610308959493929190611287565b60405180910390f35b61032b600480360381019061032691906112e1565b610b30565b005b34801561033957600080fd5b50610354600480360381019061034f91906110fd565b610c24565b604051610361919061135f565b60405180910390f35b34801561037657600080fd5b5061037f610ca4565b60405161038c9190610ec6565b60405180910390f35b600060606000806000600160008781526020019081526020016000206000015494506001600087815260200190815260200160002060010180546103d8906113a9565b80601f0160208091040260200160405190810160405280929190818152602001828054610404906113a9565b80156104515780601f1061042657610100808354040283529160200191610451565b820191906000526020600020905b81548152906001019060200180831161043457829003601f168201915b5050505050935060016000878152602001908152602001600020600201549250600160008781526020019081526020016000206003015491506001600087815260200190815260200160002060040154905091939590929450565b60035481565b60006104bd83610c24565b905060008082815260200190815260200160002060040160009054906101000a900460ff16156104ec57600080fd5b60008060008381526020019081526020016000209050338160010160006101000a81548173ffffffffffffffffffffffffffffffffffffffff021916908373ffffffffffffffffffffffffffffffffffffffff1602179055508281600001908051906020019061055d929190610caa565b50600081600201819055506000816003018190555060018160040160006101000a81548160ff0219169083151502179055506001600360008282546105a29190611409565b9250508190555050505050565b60006105ba84610c24565b905060006001600085815260200190815260200160002060000154036105df57600080fd5b600160008481526020019081526020016000206004015460016000858152602001908152602001600020600301546106179190611409565b42101561062357600080fd5b6000826001600086815260200190815260200160002060000154610647919061145f565b90508060008084815260200190815260200160002060030154101561066b57600080fd5b80600080848152602001908152602001600020600301600082825461069091906114b9565b92505081905550806001600086815260200190815260200160002060020160008282546106bd9190611409565b925050819055504260016000868152602001908152602001600020600301819055508260016000868152602001908152602001600020600401819055505050505050565b60045481565b606060008060008061071886610c24565b9050600080828152602001908152602001600020600001805461073a906113a9565b80601f0160208091040260200160405190810160405280929190818152602001828054610766906113a9565b80156107b35780601f10610788576101008083540402835291602001916107b3565b820191906000526020600020905b81548152906001019060200180831161079657829003601f168201915b5050505050945060008082815260200190815260200160002060010160009054906101000a900473ffffffffffffffffffffffffffffffffffffffff169350600080828152602001908152602001600020600201549250600080828152602001908152602001600020600301549150509193509193565b600061083582610c24565b90503373ffffffffffffffffffffffffffffffffffffffff1660008083815260200190815260200160002060010160009054906101000a900473ffffffffffffffffffffffffffffffffffffffff1673ffffffffffffffffffffffffffffffffffffffff16146108a457600080fd5b3460008083815260200190815260200160002060020160008282546108c99190611409565b92505081905550600554346108de919061145f565b60008083815260200190815260200160002060030160008282546109029190611409565b925050819055505050565b600260009054906101000a900473ffffffffffffffffffffffffffffffffffffffff1681565b600160205280600052604060002060009150905080600001549080600101805461095c906113a9565b80601f0160208091040260200160405190810160405280929190818152602001828054610988906113a9565b80156109d55780601f106109aa576101008083540402835291602001916109d5565b820191906000526020600020905b8154815290600101906020018083116109b857829003601f168201915b5050505050908060020154908060030154908060040154905085565b600060016000838152602001908152602001600020600401546001600084815260200190815260200160002060030154610a2b9190611409565b421015610a3b5760019050610a40565b600090505b919050565b6000602052806000526040600020600091509050806000018054610a68906113a9565b80601f0160208091040260200160405190810160405280929190818152602001828054610a94906113a9565b8015610ae15780601f10610ab657610100808354040283529160200191610ae1565b820191906000526020600020905b815481529060010190602001808311610ac457829003601f168201915b5050505050908060010160009054906101000a900473ffffffffffffffffffffffffffffffffffffffff16908060020154908060030154908060040160009054906101000a900460ff16905085565b600260009054906101000a900473ffffffffffffffffffffffffffffffffffffffff1673ffffffffffffffffffffffffffffffffffffffff163373ffffffffffffffffffffffffffffffffffffffff1614610b8a57600080fd5b6000600160008581526020019081526020016000206000015414610bad57600080fd5b600060016000858152602001908152602001600020905060008160020181905550600081600301819055506000816004018190555081816001019080519060200190610bfa929190610caa565b50828160000181905550600160046000828254610c179190611409565b9250508190555050505050565b6000808290506000805b6020811015610c96578251811015610c6957828181518110610c5357610c526114ed565b5b602001015160f81c60f81b60f81c60ff16821791505b601f811015610c835761010082610c80919061145f565b91505b8080610c8e9061151c565b915050610c2e565b508060001b92505050919050565b60055481565b828054610cb6906113a9565b90600052602060002090601f016020900481019282610cd85760008555610d1f565b82601f10610cf157805160ff1916838001178555610d1f565b82800160010185558215610d1f579182015b82811115610d1e578251825591602001919060010190610d03565b5b509050610d2c9190610d30565b5090565b5b80821115610d49576000816000905550600101610d31565b5090565b6000604051905090565b600080fd5b600080fd5b6000819050919050565b610d7481610d61565b8114610d7f57600080fd5b50565b600081359050610d9181610d6b565b92915050565b600060208284031215610dad57610dac610d57565b5b6000610dbb84828501610d82565b91505092915050565b610dcd81610d61565b82525050565b600081519050919050565b600082825260208201905092915050565b60005b83811015610e0d578082015181840152602081019050610df2565b83811115610e1c576000848401525b50505050565b6000601f19601f8301169050919050565b6000610e3e82610dd3565b610e488185610dde565b9350610e58818560208601610def565b610e6181610e22565b840191505092915050565b600060a082019050610e816000830188610dc4565b8181036020830152610e938187610e33565b9050610ea26040830186610dc4565b610eaf6060830185610dc4565b610ebc6080830184610dc4565b9695505050505050565b6000602082019050610edb6000830184610dc4565b92915050565b600080fd5b600080fd5b7f4e487b7100000000000000000000000000000000000000000000000000000000600052604160045260246000fd5b610f2382610e22565b810181811067ffffffffffffffff82111715610f4257610f41610eeb565b5b80604052505050565b6000610f55610d4d565b9050610f618282610f1a565b919050565b600067ffffffffffffffff821115610f8157610f80610eeb565b5b610f8a82610e22565b9050602081019050919050565b82818337600083830152505050565b6000610fb9610fb484610f66565b610f4b565b905082815260208101848484011115610fd557610fd4610ee6565b5b610fe0848285610f97565b509392505050565b600082601f830112610ffd57610ffc610ee1565b5b813561100d848260208601610fa6565b91505092915050565b6000806040838503121561102d5761102c610d57565b5b600083013567ffffffffffffffff81111561104b5761104a610d5c565b5b61105785828601610fe8565b925050602083013567ffffffffffffffff81111561107857611077610d5c565b5b61108485828601610fe8565b9150509250929050565b6000806000606084860312156110a7576110a6610d57565b5b600084013567ffffffffffffffff8111156110c5576110c4610d5c565b5b6110d186828701610fe8565b93505060206110e286828701610d82565b92505060406110f386828701610d82565b9150509250925092565b60006020828403121561111357611112610d57565b5b600082013567ffffffffffffffff81111561113157611130610d5c565b5b61113d84828501610fe8565b91505092915050565b600073ffffffffffffffffffffffffffffffffffffffff82169050919050565b600061117182611146565b9050919050565b61118181611166565b82525050565b600060808201905081810360008301526111a18187610e33565b90506111b06020830186611178565b6111bd6040830185610dc4565b6111ca6060830184610dc4565b95945050505050565b60006020820190506111e86000830184611178565b92915050565b60008115159050919050565b611203816111ee565b82525050565b600060208201905061121e60008301846111fa565b92915050565b6000819050919050565b61123781611224565b811461124257600080fd5b50565b6000813590506112548161122e565b92915050565b6000602082840312156112705761126f610d57565b5b600061127e84828501611245565b91505092915050565b600060a08201905081810360008301526112a18188610e33565b90506112b06020830187611178565b6112bd6040830186610dc4565b6112ca6060830185610dc4565b6112d760808301846111fa565b9695505050505050565b6000806000606084860312156112fa576112f9610d57565b5b600061130886828701610d82565b935050602061131986828701610d82565b925050604084013567ffffffffffffffff81111561133a57611339610d5c565b5b61134686828701610fe8565b9150509250925092565b61135981611224565b82525050565b60006020820190506113746000830184611350565b92915050565b7f4e487b7100000000000000000000000000000000000000000000000000000000600052602260045260246000fd5b600060028204905060018216806113c157607f821691505b6020821081036113d4576113d361137a565b5b50919050565b7f4e487b7100000000000000000000000000000000000000000000000000000000600052601160045260246000fd5b600061141482610d61565b915061141f83610d61565b9250827fffffffffffffffffffffffffffffffffffffffffffffffffffffffffffffffff03821115611454576114536113da565b5b828201905092915050565b600061146a82610d61565b915061147583610d61565b9250817fffffffffffffffffffffffffffffffffffffffffffffffffffffffffffffffff04831182151516156114ae576114ad6113da565b5b828202905092915050565b60006114c482610d61565b91506114cf83610d61565b9250828210156114e2576114e16113da565b5b828203905092915050565b7f4e487b7100000000000000000000000000000000000000000000000000000000600052603260045260246000fd5b600061152782610d61565b91507fffffffffffffffffffffffffffffffffffffffffffffffffffffffffffffffff8203611559576115586113da565b5b60018201905091905056fea2646970667358221220525ce14c9a7bbdbc44e58e9bbe7fc48436b0e936bec5dd68a1f945fffd9828fa64736f6c634300080d0033",
  "immutableReferences": {},
  "source": "pragma solidity ^ 0.8.13;\n\ncontract SolarCharge {\n\n\tstruct User {\n\t\tstring name;\n\t    address userAccount;\n        uint amountPaid;\n        uint solcoins;\n        bool userAdded;\n    }\n\n    mapping (bytes32 => User) public users;\n\n    struct Station {\n        uint rate;\n        string location;\n        uint coinBalance;\n        uint lastActivated;\n        uint lastDuration;\n    }\n\n    mapping (uint => Station) public stations;\n\n\taddress public owner;\n\tuint public numUsers;\n\tuint public numStations;\n\tuint public coinRate; // coins per ether\n\n    constructor (){\n        owner = msg.sender;\n\t\tnumUsers = 0;\n\t\tnumStations = 0;\n\t\tcoinRate = 100000;\n    }\n\n\tfunction registerUser(string memory _email, string memory _name) public {\n\t\tbytes32 email = stringToBytes(_email);\n\n\t\tif(users[email].userAdded){\n\t\t\trevert();\n\t\t}\n\t\t\n\t\tUser storage u = users[email]; \n        u.userAccount = msg.sender;\n        u.name = _name;\n        u.amountPaid = 0;\n        u.solcoins =0;\n        u.userAdded = true;\n\t\tnumUsers += 1;\n\t}\n\n\tfunction buyCoins(string memory _email) public payable {\n\t\tbytes32 email = stringToBytes(_email);\n\n\t\tif(users[email].userAccount!=msg.sender){\n\t\t\trevert();\n\t\t}\n        users[email].amountPaid += msg.value;\n        users[email].solcoins += msg.value*coinRate;\n\t}\n\n\tfunction addStation(uint ID, uint _rate, string memory _location) public payable {\n\t\tif(msg.sender!=owner){\n\t\t\trevert();\n\t\t}\n\t\tif(stations[ID].rate!=0){\n\t\t\trevert();\n\t\t}\n\n\t\tStation storage s = stations[ID]; \n        s.coinBalance = 0;\n        s.lastActivated = 0;\n        s.lastDuration = 0;\n        s.location = _location;\n        s.rate = _rate;\n        numStations += 1;\n\t}\n\n\tfunction activateStation(string memory _email, uint ID, uint duration) public {\n\t\tbytes32 email = stringToBytes(_email);\n\n\t\t// Station does not exist\n\t\tif(stations[ID].rate==0){\n\t\t\trevert();\n\t\t}\n\n\t\t// Station is busy\n\t\tif(block.timestamp < (stations[ID].lastActivated+stations[ID].lastDuration)){\n\t\t\trevert();\n\t\t}\n\n\t\tuint coinsRequired = stations[ID].rate*duration;\n\n\t\t// User has insufficient coins\n\t\tif (users[email].solcoins<coinsRequired){\n\t\t\trevert();\n\t\t}\n\n        users[email].solcoins -= coinsRequired;\n        stations[ID].coinBalance += coinsRequired;\n        stations[ID].lastActivated = block.timestamp;\n        stations[ID].lastDuration = duration;\n\t}\n\n\tfunction getStationState(uint ID) public view returns (bool){\n\t\tif(block.timestamp<(stations[ID].lastActivated+stations[ID].lastDuration)){\n\t\t\treturn true;\n\t\t}else{\n\t\t\treturn false;\n\t\t}            \t\n\t}\n\n\tfunction getUser(string memory _email) public view returns (string memory name, \n        address userAccount, uint amountPaid, uint solcoins){\n\t\tbytes32 email = stringToBytes(_email);\n\t\tname = users[email].name;\n\t\tuserAccount = users[email].userAccount;\n        amountPaid = users[email].amountPaid;\n        solcoins = users[email].solcoins;\n\t}\n\n\tfunction getStation(uint ID) public view returns (uint rate, \n            string memory location, uint coinBalance, \n            uint lastActivated, uint lastDuration){\n\t\trate = stations[ID].rate;\n        location = stations[ID].location;\n        coinBalance = stations[ID].coinBalance;\n        lastActivated = stations[ID].lastActivated;\n        lastDuration = stations[ID].lastDuration;\n\t}\n\n\t// Converts 'string' to 'bytes32'\n\tfunction stringToBytes(string memory s) public pure returns (bytes32) {\n\t  bytes memory b = bytes(s);\n\t  uint r = 0;\n\t  for (uint i = 0; i < 32; i++) {\n\t      if (i < b.length) {\n\t          r = r | uint(uint8(b[i]));\n\t      }\n\t      if (i < 31) r = r * 256;\n\t  }\n\t  return bytes32(r);\n\t}\n\n}",
  "sourcePath": "/home/maverick/Desktop/Solar-Charge/solarcharge-node-api/contracts/SolarCharge.sol",
  "compiler": {
    "name": "solc",
    "version": "0.8.13+commit.abaa5c0e.Emscripten.clang"
  },
  "schemaVersion": "3.4.6",
  "updatedAt": "2022-04-24T18:51:49.108Z",
  "networkType": "ethereum",
  "devdoc": {
    "kind": "dev",
    "methods": {},
    "version": 1
  },
  "userdoc": {
    "kind": "user",
    "methods": {},
    "version": 1
  }
}